:02000000F22EDE
:0C000600000000000000000000000800E6
:10001200243083120313FC00B530FD00FD0B0F28C2
:0A002200FC0B0F280000000008008E
:0E002C00533083120313FD00FD0B1A28080049
:10003A0083120313E81B2328881324288817681BB4
:10004A002828081329280817E81A2D2888122E2884
:10005A008816681A32280812332808164A183728C8
:10006A00071438280710871403208710E8193F2837
:10007A008813402888176819442808134528081740
:10008A00E818492888124A28881668184E2808123B
:10009A004F2808164A18532807145428071087149B
:1000AA00032087104A1C5B2809205C2816200800B8
:1000BA00831203132008930083161418662800007D
:0A00CA00612883121308F0000800FB
:1000D40083120313E61DA0286208E700E70CE71368
:1000E400E70CE713E70CE7130530F1006308F000B1
:1000F400710803198128F00D7010FF3E7B287008E9
:10010400E70407110230A0005D206108A0005D2013
:100114006708A0005D200530F1006208F000710856
:1001240003199828F00D7010FF3E92287008E7001C
:100134007008A0005D2007150320E6280530F000B4
:100144006408E70070080319AB28E70CE713FF3EC7
:10015400A5286508F000F00D7010F00D7010F00D7A
:1001640070107008E70407110230A0005D206108D8
:10017400A0005D206708A0005D206408F000F00D79
:100184007010F00D7010F00D7010E030F005700874
:10019400E70008307004F1007108E70003306405DB
:1001A400F0007108F0047008E7007008A0005D20FA
:1001B4006308E7006308A0005D206208E7006208A6
:0A01C400A0005D20071503200800CD
:1001CE00831203134A106108E8001D204A14080028
:1001DE008312031307110230A0005D20FF30A00030
:1001EE005D205908A0005D20071503205A08031949
:1001FE00142907110330A0005D20FE30A0005D2001
:10020E00A0015D207008DB0007150320E0305B05C0
:0C021E00F10071085906031D00290800BA
:10022A0083120313D903DA03DB03DC03DD0306308D
:10023A00F0005908DF00700803192729DF0D5F1045
:10024A00FF3E21295A08DF0407110230A0005D2071
:10025A002A30A0005D205F08A0005D20071503205A
:10026A005B08DF00DF0D5F10DF0D5F10DF0D5F1031
:10027A005D08DF045E1942295F175E1C4529DF17F6
:10028A0007110230A0005D202930A0005D205F0820
:10029A00A0005D20071503205C08DF00DE1C56293C
:1002AA005F1707110230A0005D202830A0005D20F2
:0C02BA005F08A0005D200715032008006D
:1002C600103083120313FD00FD0B672900000800A0
:1002D600831203135908003A031D7F292030E100D9
:1002E6005A08E2005B08E3005C08E4005D08E500EC
:1002F6005E08E6006A208C292430E1005A08E200F4
:100306005B08E3005C08E4005D08E5005E08E600C3
:040316006A20080051
:10031A00A12983120313DF01B8290430DF00B829A9
:10032A000830DF00B8291030DF00B8291430DF00A8
:10033A00B8291830DF00B829831203135908003A84
:10034A0003198E295908013A031992295908023AC0
:10035A00031995295908033A031998295908043A9F
:10036A0003199B299E295F08E1005A08E2005B08ED
:10037A00E3005C08E4005D08E5005E08E6006A2028
:02038A00080069
:10038C00243083120313FD00FD0BCA290000080062
:10039C0083120313F801F9011030FC00710DF80DF4
:1003AC00F90D7408F8027508031C750FF90203188F
:1003BC00E6297408F80775080318750FF907031078
:0A03CC00F00DF10DFC0BD429080020
:1003D600FD29803083120313D900102AC030D900BA
:1003E600102A9430D900102AD430D900102A80302F
:1003F600D900102A831203135908013A0319EC296C
:100406005908023A0319F1295908033A0319F4293C
:100416005908043A0319F729FA295A03F00059082A
:10042600F0077008D9007008E8001D204A10DC01AA
:100436005C085B07840000080319292A5C085B072F
:1004460084000008E100E720DC0A1B2A4A140800A1
:1004560083120313DA1D792A07110330A0005D20E9
:100466005908A0005D20A0015D207008DC00053061
:10047600F1007008DD00DE01DF01E00171080319FB
:10048600482ADD0CDD13FF3E422A0030DE00DF0085
:10049600E0005F08E0005E08DF005D08DE00DD01C9
:1004A6007008F100F10D7110F10D7110F10D711060
:1004B6007108DD040030DE04DF04E004A0015D20E5
:1004C6007008DC00071503200530F1005C08F00019
:1004D60071080319722AF00CF013FF3E6C2A70089B
:1004E600DD040030DE04DF04E004F12ADD01DE0174
:1004F600DF01E00107110330A0005D205908A000CC
:100506005D20A0015D207008DC000530F100700858
:10051600DB0071080319932ADB0D5B10FF3E8D2A61
:100526000330F1007008DD00DE01DF01E001710833
:100536000319A12ADD0CDD13FF3E9B2A0030DE00E5
:10054600DF00E0005F08E0005E08DF005D08DE0017
:10055600DD01A0015D207008DC0003307005F100AC
:100566005B087104F3007308DB00E0307005F200ED
:100576007208F000F00CF013F00CF013F00CF0130E
:100586007308F0047008DB007008DD040030DE0438
:10059600DF04E0045F08E0005E08DF005D08DE00BF
:1005A600DD01A0015D207008DC007008DD0400306C
:1005B600DE04DF04E0045F08E0005E08DF005D089B
:1005C600DE00DD01A0015D207008DC0007150320B8
:1005D6005C08DD040030DE04DF04E0045D08F000A2
:0E05E6005E08F1005F08F2006008F3000800F4
:1005F4000C2B803083120313D9001F2BC030D90079
:100604001F2B9430D9001F2BD430D9001F2B8030DE
:10061400D9001F2B831203135908013A0319FB2A2B
:100624005908023A0319002B5908033A0319032BFA
:100634005908043A0319062B092B5A03F0005908E8
:10064400F0077008D9004A147008E8001D204A1009
:0A0654005B08E8001D204A140800AE
:0E065E008312031335088A0034088200080056
:10066C008312031307110330A0005D203030A0006B
:10067C005D20A0015D207008D60007150320D61957
:10068C00492BD6016F2B07110330A0005D204030A1
:10069C00A0005D20A0015D207008D6000715032086
:1006AC00D6195B2B1030D6006F2B07110330A0002E
:1006BC005D205030A0005D20A0015D207008D600A8
:1006CC0007150320D6196D2B2030D6006F2BF001A7
:1006DC00DF2B3030D60707110230A0005D20560802
:1006EC00A0005D2003305505F0007008D80070089C
:1006FC00A0005D2007150320D519872BF730D800F3
:10070C00892BFF30D800560AE1004F08E200500850
:10071C00E3005108E4005208E5005808E6006A209E
:10072C005408D800551B9B2B581707110230A000FA
:10073C005D2005305607A0005D205808A0005D2004
:10074C0007150320032007110230A0005D2006309E
:10075C005607A0005D20D701540857020318BE2B82
:10076C005708530784000008A0005D20D70AB22B5D
:10077C000715032003200711CF2B8130A0005D202B
:10078C00DB2B8230A0005D20DB2B8330A0005D20B2
:10079C00DB2B5608303A0319C32B5608403A031981
:1007AC00C72B5608503A0319CB2B07150320FF30E3
:0407BC00F000080041
:1007C000831203139F01C0309F042609F0007008B4
:1007D00083169F051F179F1783124F08F000F00D17
:1007E0007010F00D7010F00D701070089F041F1441
:1007F000C6211F151F1DFE2B0000FA2B1F101E08FF
:10080000F100F00183161E08F0040030F104080026
:10081000831203135108D9005208DA002130DB009B
:10082000EB215108D9005208DA00E830F400033017
:10083000F5004F08F0005008F100CE21303070076D
:10084000DB00FA225108D900520ADA006430F400C1
:100850000030F5004F08F0005008F100CE210A30BA
:10086000F4000030F500CE217808F0007908F1009E
:1008700030307007DB00FA225108D90002305207ED
:10088000DA000A30F4000030F5004F08F00050089C
:10089000F100CE210A30F4000030F500CE217808B6
:1008A000F0007908F10030307007DB00FA225108BF
:1008B000D90003305207DA000A30F4000030F500A6
:1008C0004F08F0005008F100CE217808F0007908B8
:0C08D000F10030307007DB00FA22080055
:1008DC008312031352088400800107110330A00017
:1008EC005D202C30A0005D20A0015D207008D3009D
:1008FC0007150320531CDE2CFF30D60007110530E2
:10090C00A0005D202C30A0005D200130A0005D20F7
:10091C00A0015D2007150320032007110330A00060
:10092C005D202D30A0005D20A0015D207008D3005B
:10093C0007150320D31FB92C52088400083000047B
:10094C00F000520884007008800007110530A000E8
:10095C005D202D30A0005D208030A0005D20A00126
:10096C005D2007150320032007110330A0005D2034
:10097C006030A0005D20A0015D207008D300071539
:10098C000320531DDD2C07305305F0005208840062
:10099C000008F0045208840070088000520884009B
:1009AC0001300005F0005208840070088000512DC1
:1009BC0052088400800107110330A0005D202C3008
:1009CC00A0005D20A0015D207008D3000715032056
:1009DC00D31C4F2DD60107110530A0005D202C3003
:1009EC00A0005D200230A0005D20A0015D20071555
:1009FC000320032007110330A0005D202D30A00040
:100A0C005D20A0015D207008D30007150320531F43
:100A1C00262D5208840008300004F000520884008F
:100A2C007008800007110530A0005D202D30A0005B
:100A3C005D204030A0005D20A0015D200715032043
:100A4C00032007110330A0005D207030A0005D2052
:100A5C00A0015D207008D300071503200730530553
:100A6C00F000520884000008F0045208840070085A
:100A7C008000520884000230000203184E2D5208E8
:100A8C00840080300004F00052088400700880005C
:100A9C00512DF001E32D07110330A0005D20560805
:100AAC000319602D6530A0005D20A0015D20700849
:100ABC00D300672D7530A0005D20A0015D2070086B
:100ACC00D300071503205108840053088000531FDE
:100ADC00782D5208840040300004F0005208840045
:100AEC007008800007110330A0005D205608031920
:100AFC00892D6230A0005D20A0015D207008D3001C
:100B0C006130D500922D7230A0005D20A0015D20D7
:100B1C007008D3007130D50007150320D31DB22DFA
:100B2C005208840020300004F00052088400700841
:100B3C0080005508D900F730DA002B224F088400CA
:100B4C00700880007108840A80007208840A800092
:100B5C007308840A8000C42D5508D900FF30DA00D0
:100B6C002B224F088400700880007108840A8000D2
:100B7C007208840A80007308840A80000530D50747
:100B8C0007110330A0005D205508A0005D20D401A2
:100B9C0051088400000854020318DF2DA0015D20C9
:100BAC007008D30054085007840070088000D40AE1
:0C0BBC00CE2D07150320FF30F0000800CC
:100BC8008316031387100710081288120813881356
:100BD8008312871007108813081388120812092037
:100BE8000920092088160816871403208710092071
:100BF80087140320871009208714032087100920F1
:100C080008128714032087100920871403208710EF
:100C1800881288178714032087100920881308165C
:100C280087140320871008128714032087100920CF
:100C380087140320871008168714032087100920BB
:100C480008128714032087108817081788160816B3
:0C0C580087140320871009204A140800AC
:100C64002F238A110A128000840AB40A0319B50AD0
:080C7400F003031D322E0800FD
:100C7C00831603130713071183120717071507139E
:100C8C006321071763218030D900FF30DA00EF2091
:100C9C004F08D9005008DA005108DB005208DC007C
:100CAC005308DD005408DE00152160305405D500D2
:100CBC0010305405F1007108103A031D662E5515BD
:100CCC0007110230A0005D206030A0005D205508A7
:100CDC00A0005D2007150320032007110230A0009F
:100CEC005D207030A0005D205508A0005D20071528
:100CFC000320D901DA01DB01DC01DD01F730DE0074
:100D0C006B210130D900DA01DB01DC01DD01F730A8
:100D1C00DE006B2160305405F0009F307004F10050
:100D2C00A62EF730D600F730D700AF2EFF30D60006
:100D3C00FF30D700AF2EFF30D600F730D700AF2EE4
:100D4C007108DF3A0319972E7108BF3A03199C2ECC
:100D5C00A12ED901DA01DB01DC01DD015608DE0030
:100D6C008D210130D900DA01DB01DC01DD015608EF
:100D7C00DE008D210230D5005508053C031CD12E18
:100D8C005508D900DA01DB01DC01DD015708DE0072
:100D9C008D21D50AC22ED901FF30DA00EF200800D0
:100DAC005D3083120313C7000030C8002030C90027
:100DBC000030FF30C400FF30C500FF30C600FF30EC
:100DCC0083168712871107168312940140308316FD
:080DDC00940083129416080034
:100DE400CE278030831603139F00FF308500D6265C
:100DF400E4250130E8001D200C30E8001D20F4300B
:100E0400B300D130BB000130CF000330D000033039
:100E1400D1000330D2000130D300D130D4003E26BB
:100E24008030D900FF30DA00EF20D901FF30DA003A
:100E3400FF30DB00DC00DD00F730DE006B21013029
:100E4400D900FF30DA00FF30DB00DC00DD00F730D2
:100E5400DE006B210430D9004F30DA002F30DB0084
:100E64000030DC000030DD00F730DE008D21D901D8
:100E7400FF30DA00EF203630CF003C30D0004E3067
:100E8400D1004D30D2006E247008BA003908003AFF
:100E9400031D562F3808003A031D562F37082F3AE2
:100EA400031D562F36084F3A031DA72F3A0803197E
:100EB400A72F4E08023A031DA72F3C08CB00CC01F4
:100EC4004B08CC00CB013D08CB040030CC040230ED
:100ED400D9000130DA002D30DB00EB214B08CF00C4
:100EE4004C08D0000230D1000630D2000824CF01D3
:100EF400E02370088312CB007108CC007108F20063
:100F0400F3017208BC00FF307005BD007130CF00E2
:100F14002B30D0000030D1000030D2003C30D30060
:100F24000230D4003308D50036230130D900013013
:100F3400DA002730DB00EB214B08CF004C08D0004F
:100F44000130D1000630D20008240630FB001330F3
:100F5400FC00AD30FD00FD0BAD2FFC0BAD2FFB0BEA
:0A0F6400AD2F000000003D2FB62F56
:100F9C0021308400123083120313F000BC30B400F3
:080FAC000730B50032260800F1
:0A0F780020342034203420340034EB
:020F82000F342A
:0C0F840054345834443431343A340034CE
:0C0F900052345834443432343A340034C3
:02400E000A2F77
:00000001FF
