:02000000012FCE
:100006008312031320089300831614180C2800008B
:0A001600072883121308F000080009
:0E002000533083120313FD00FD0B142808005B
:10002E00243083120313FC00B530FD00FD0B1D2898
:0A003E00FC0B1D2800000000080064
:0C004800000000000000000000000800A4
:1000540083120313E61B3028881331288817661B84
:100064003528081336280817E61A3A2888123B2838
:100074008816661A3F280812402808164318442890
:10008400071445280710871424208710E6194C28E4
:1000940088134D2888176619512808135228081701
:1000A400E618562888125728881666185B280812FE
:1000B4005C28081643186028071461280710871461
:1000C40024208710431C6828172069281020080062
:1000D40083120313EB1DA0286708EC00EC0CEC134F
:1000E400EC0CEC13EC0CEC130530F1006808F00098
:1000F400710803198128F00D7010FF3E7B287008E9
:10010400EC0407110230A00003206608A0000320BD
:100114006C08A00003200530F1006708F0007108A6
:1001240003199828F00D7010FF3E92287008EC0017
:100134007008A000032007152420E6280530F000ED
:100144006908EC0070080319AB28EC0CEC13FF3EB3
:10015400A5286A08F000F00D7010F00D7010F00D75
:1001640070107008EC0407110230A0000320660828
:10017400A00003206C08A00003206908F000F00D23
:100184007010F00D7010F00D7010E030F005700874
:10019400EC0008307004F1007108EC0003306905CC
:1001A400F0007108F0047008EC007008A00003204F
:1001B4006808EC006808A00003206708EC006708E2
:0A01C400A000032007152420080006
:1001CE008312031307110230A0000320FF30A0009A
:1001DE0003205F08A00003200715242060080319E0
:1001EE000C2907110330A0000320FE30A0000320CD
:1001FE00A00103207008E10007152420E0306105FE
:0C020E00F10071085F06031DF8280800CD
:10021A0083120313DF03E003E103E203E30306307F
:10022A00F0005F08E500700803191F29E50D651045
:10023A00FF3E19296008E50407110230A0000320D7
:10024A002A30A00003206508A000032007152420F7
:10025A006108E500E50D6510E50D6510E50D651011
:10026A006308E50464193A296517641C3D29E517F2
:10027A0007110230A00003202930A00003206508DE
:10028A00A0000320071524206208E500E41C4E297B
:10029A00651707110230A00003202830A0000320B0
:0C02AA006508A0000320071524200800B0
:1002B6008312031343105F08E6002A204314080044
:1002C600831203135F08003A031D77292030E600E6
:1002D6006008E7006108E8006208E9006308EA00D0
:1002E6006408EB006A2084292430E6006008E700F1
:1002F6006108E8006208E9006308EA006408EB00A8
:040306006A20080061
:10030A00992983120313E501B0290430E500B029C5
:10031A000830E500B0291030E500B0291430E500B6
:10032A00B0291830E500B029831203135F08003A98
:10033A00031986295F08013A03198A295F08023AD4
:10034A0003198D295F08033A031990295F08043AB3
:10035A000319932996296508E6006008E7006108F1
:10036A00E8006208E9006308EA006408EB006A2012
:02037A00080079
:10037C00103083120313FD00FD0BC229000008008E
:0E038C00831203133C088A003B08820008001D
:10039A00033083120313C0000030C1002030C200B2
:1003AA000030FF30BD00FF30BE00FF30BF00FF301D
:1003BA008316871287110716831294014030831619
:0803CA00940083129416080050
:1003D20083120313F801F9011030FC00710DF80DBE
:1003E200F90D7408F8027508031C750FF902031859
:1003F200012A7408F80775080318750FF907031026
:0A040200F00DF10DFC0BEF290800CE
:10040C00243083120313FD00FD0B0A2A00000800A0
:10041C008316031307130711831207170715071306
:10042C00BE210717BE218030DF00FF30E000E7203F
:10043C005608DF005708E0005808E1005908E200B0
:10044C005A08E3005B08E4000D2160305B05DC001A
:10045C0010305B05F1007108103A031D362A5C154B
:10046C0007110230A00003206030A00003205C08BC
:10047C00A000032007152420242007110230A0001F
:10048C0003207030A00003205C08A0000320071597
:10049C002420DF01E001E101E201E301F730E40097
:1004AC0063210130DF00E001E101E201E301F730FB
:1004BC00E400632160305B05F0009F307004F100B4
:1004CC00762AF730DD00F730DE007F2AFF30DD00C2
:1004DC00FF30DE007F2AFF30DD00F730DE007F2AA0
:1004EC007108DF3A0319672A7108BF3A03196C2A9D
:1004FC00712ADF01E001E101E201E3015D08E400A2
:10050C0085210130DF00E001E101E201E3015D083A
:10051C00E40085210230DC005C08053C031CA12AA8
:10052C005C08DF00E001E101E201E3015E08E400A8
:10053C008521DC0A922ADF01FF30E000E720080069
:10054C0083120313D71DF42A07110330A0000320D4
:10055C005608A0000320A00103207008D900053024
:10056C00F1007008DA00DB01DC01DD017108031910
:10057C00C32ADA0CDA13FF3EBD2A0030DB00DC00A4
:10058C00DD005C08DD005B08DC005A08DB00DA01EA
:10059C007008F100F10D7110F10D7110F10D711069
:1005AC007108DA040030DB04DC04DD04A001032054
:1005BC007008D900071524200530F1005908F00007
:1005CC0071080319ED2AF00CF013FF3EE72A7008AE
:1005DC00DA040030DB04DC04DD046C2BDA01DB0113
:1005EC00DC01DD0107110330A00003205608A00038
:1005FC000320A00103207008D9000530F100700819
:10060C00D800710803190E2BD80D5810FF3E082B7B
:10061C000330F1007008DA00DB01DC01DD01710848
:10062C0003191C2BDA0CDA13FF3E162B0030DB00FF
:10063C00DC00DD005C08DD005B08DC005A08DB0038
:10064C00DA01A00103207008D90003307005F10015
:10065C0058087104F3007308D800E0307005F200FC
:10066C007208F000F00CF013F00CF013F00CF01317
:10067C007308F0047008D8007008DA040030DB044A
:10068C00DC04DD045C08DD005B08DC005A08DB00E0
:10069C00DA01A00103207008D9007008DA040030D8
:1006AC00DB04DC04DD045C08DD005B08DC005A08BC
:1006BC00DB00DA01A00103207008D9000715242003
:1006CC005908DA040030DB04DC04DD045A08F000BD
:0E06DC005B08F1005C08F2005D08F300080006
:1006EA008316031387100710081288120813881339
:1006FA00831287100710881308138812081217200C
:10070A001720172088160816871424208710172008
:10071A008714242087101720871424208710172075
:10072A000812871424208710172087142420871082
:10073A008812881787142420871017208813081610
:10074A008714242087100812871424208710172062
:10075A00871424208710081687142420871017204E
:10076A000812871424208710881708178816081675
:0C077A0087142420871017204314080067
:10078600D52B803083120313D600E82BC030D60059
:10079600E82B9430D600E82BD430D600E82B8030F6
:1007A600D600E82B831203135608013A0319C42B0B
:1007B6005608023A0319C92B5608033A0319CC2BDB
:1007C6005608043A0319CF2BD22B5703F0005608CC
:1007D600F0077008D6007008E6002A204310D901F9
:1007E60059085807840000080319012C59085807AE
:1007F60084000008DF005B21D90AF32B43140800AC
:10080600831203134F088400800107110330A000F0
:1008160003202C30A0000320A00103207008D00084
:1008260007152420501C732CFF30D3000711053008
:10083600A00003202C30A00003200130A0000320DC
:10084600A001032007152420242007110330A0004F
:1008560003202D30A0000320A00103207008D00043
:1008660007152420D01F4E2C4F08840008300004A2
:10087600F0004F0884007008800007110530A000C2
:1008860003202D30A00003208030A0000320A0010B
:10089600032007152420242007110330A00003207D
:1008A6006030A0000320A00103207008D0000715C7
:1008B6002420501D722C07305005F0004F0884008C
:1008C6000008F0044F088400700880004F08840078
:1008D60001300005F0004F08840070088000E62C07
:1008E6004F088400800107110330A00003202C303C
:1008F600A0000320A00103207008D00007152420C3
:10090600D01CE42CD30107110530A00003202C30A5
:10091600A00003200230A0000320A0010320071539
:100926002420242007110330A00003202D30A0002E
:100936000320A00103207008D00007152420501FB3
:10094600BB2C4F08840008300004F0004F088400D8
:100956007008800007110530A00003202D30A0008C
:1009660003204030A0000320A00103200715242007
:10097600242007110330A00003207030A0000320BC
:10098600A00103207008D000071524200730500569
:10099600F0004F0884000008F0044F088400700837
:1009A60080004F088400023000020318E32C4F0831
:1009B600840080300004F0004F0884007008800036
:1009C600E62CF001782D07110330A0000320530810
:1009D6000319F52C6530A0000320A0010320700840
:1009E600D000FC2C7530A0000320A0010320700865
:1009F600D000071524204E08840050088000501FA0
:100A06000D2D4F08840040300004F0004F0884008C
:100A16007008800007110330A00003205308031953
:100A26001E2D6230A0000320A00103207008D00014
:100A36006130D200272D7230A0000320A0010320D0
:100A46007008D0007130D20007152420D01D472D24
:100A56004F08840020300004F0004F08840070081E
:100A660080005208D600F730D700A6224C08840032
:100A7600700880007108840A80007208840A800069
:100A86007308840A8000592D5208D600FF30D7001B
:100A9600A6224C088400700880007108840A800031
:100AA6007208840A80007308840A80000530D20721
:100AB60007110330A00003205208A0000320D10133
:100AC6004E088400000851020318742DA00103206B
:100AD6007008D00051084D07840070088000D10AC4
:0C0AE600632D07152420FF30F0000800ED
:100AF200831203139F01C0309F042909F00070087C
:100B020083169F051F179F1783124C08F000F00DE4
:100B12007010F00D7010F00D701070089F041F140B
:100B220006221F151F1D972D0000932D1F101E0852
:100B3200F100F00183161E08F0040030F1040800F1
:100B4200E83083120313F4000330F5004C08F00080
:100B52004D08F100E9213030F0077008D000643010
:100B6200F4000030F5004C08F0004D08F100E921D6
:100B72000A30F4000030F500E9217808F000790825
:100B8200F10030307007D1000A30F4000030F50077
:100B92004C08F0004D08F100E9210A30F400003061
:100BA200F500E9217808F0007908F100303070078B
:100BB200D2000A30F4000030F5004C08F0004D0875
:100BC200F100E9217808F0007908F100303070076F
:100BD200D300D4014E08D6004F08D7005030D800B9
:040BE200C323080021
:100BE6008030831603139F00FF308500CD217523C7
:100BF6000130E6002A200C30E6002A20F430B70047
:100C0600D130B6000130D6000330D7000330D8000B
:100C16000330D9000130DA00D130DB000E228030FB
:100C2600DF00FF30E000E720DF01FF30E000FF30AB
:100C3600E100E200E300F730E40063210130DF0069
:100C4600FF30E000FF30E100E200E300F730E400AF
:100C560063210430DF006530E0000030E100003041
:100C6600E2000030E300F730E40085210530DF00C4
:100C76006630E0000030E1000030E2000030E300C2
:100C8600F730E4008521DF01FF30E000E7200800AF
:100C9600C6218A110A128000840ABB0A0319BC0AFB
:080CA600F003031D4B2E0800B2
:100CAE008312031307110330A00003203030A0007D
:100CBE000320A00103207008D30007152420D319A8
:100CCE006A2ED301902E07110330A000032040306E
:100CDE00A0000320A00103207008D30007152420D4
:100CEE00D3197C2E1030D300902E07110330A000A4
:100CFE0003205030A0000320A00103207008D30071
:100D0E0007152420D3198E2E2030D300902EF001FB
:100D1E00002F3030D30707110230A00003205308F4
:100D2E00A000032003305205F0007008D5007008B3
:100D3E00A000032007152420D219A82EF730D500C5
:100D4E00AA2EFF30D500530AE6004C08E7004D08E6
:100D5E00E8004E08E9004F08EA005508EB006A204B
:100D6E005108D500521BBC2E551707110230A0009A
:100D7E00032005305307A00003205508A0000320D0
:100D8E0007152420242007110230A000032006306E
:100D9E005307A0000320D401510854020318DF2E7C
:100DAE005408500784000008A0000320D40AD32E54
:100DBE000715242024200711F02E8130A0000320D7
:100DCE00FC2E8230A0000320FC2E8330A0000320D6
:100DDE00FC2E5308303A0319E42E5308403A0319F7
:100DEE00E82E5308503A0319EC2E07152420FF3035
:040DFE00F0000800F9
:100E0200C627F325CC01792570088312B400710836
:100E1200B5007108F200F3017208B900FF307005E5
:100E2200BA006430CC000030CD000030CE0000307B
:100E3200CF003930D0000230D1003708D200572617
:100E42006430CC000030CD000030CE000030CF0046
:100E52003930D0000230D1003708D2005726013095
:100E6200D6000130D7002130D800C3233408CC008B
:100E72003508CD000130CE000630CF00A125463026
:100E8200CC003930CD004530CE004430CF000324B1
:100E92007008B800700803199D2F4508023A031D17
:100EA2009D2F3908CA00CB014A08CB00CA013A0873
:100EB200CA040030CB044908003A031D6A2F4808CF
:100EC200003A031D6A2F4708003A031D6A2F46089D
:100ED200653A031D7D2F0230D6000130D7002F3036
:100EE200D800C3234A08CC004B08CD000230CE0004
:100EF2000630CF00A1259D2F4908003A031D8B2FF4
:100F02004808003A031D8B2F4708003A031D8B2F18
:100F12004608663A031D9D2F0230D6000830D700DE
:100F22002A30D800C3234A08CC004B08CD00023037
:100F3200CE000630CF00A1250630FB001330FC00A6
:100F4200AD30FD00FD0BA32FFC0BA32FFB0BA32F3A
:080F520000000000032FAC2F8A
:100F8C0021308400133083120313F000B230BB0005
:080F9C000730BC004B260800E1
:100F64004E344F3444344534203441343A3400341C
:020F74000F3438
:0A0F76005234583443343A34003446
:0A0F80005234583442343A3400343D
:02400E000A2F77
:00000001FF
